{
  "contractName": "ArtToken",
  "abi": [
    {
      "inputs": [],
      "stateMutability": "nonpayable",
      "type": "constructor"
    },
    {
      "anonymous": false,
      "inputs": [
        {
          "indexed": true,
          "internalType": "address",
          "name": "owner",
          "type": "address"
        },
        {
          "indexed": true,
          "internalType": "address",
          "name": "approved",
          "type": "address"
        },
        {
          "indexed": true,
          "internalType": "uint256",
          "name": "tokenId",
          "type": "uint256"
        }
      ],
      "name": "Approval",
      "type": "event"
    },
    {
      "anonymous": false,
      "inputs": [
        {
          "indexed": true,
          "internalType": "address",
          "name": "owner",
          "type": "address"
        },
        {
          "indexed": true,
          "internalType": "address",
          "name": "operator",
          "type": "address"
        },
        {
          "indexed": false,
          "internalType": "bool",
          "name": "approved",
          "type": "bool"
        }
      ],
      "name": "ApprovalForAll",
      "type": "event"
    },
    {
      "anonymous": false,
      "inputs": [
        {
          "indexed": true,
          "internalType": "address",
          "name": "from",
          "type": "address"
        },
        {
          "indexed": true,
          "internalType": "address",
          "name": "to",
          "type": "address"
        },
        {
          "indexed": true,
          "internalType": "uint256",
          "name": "tokenId",
          "type": "uint256"
        }
      ],
      "name": "Transfer",
      "type": "event"
    },
    {
      "inputs": [
        {
          "internalType": "uint256",
          "name": "",
          "type": "uint256"
        }
      ],
      "name": "Items",
      "outputs": [
        {
          "internalType": "uint256",
          "name": "id",
          "type": "uint256"
        },
        {
          "internalType": "address",
          "name": "creator",
          "type": "address"
        },
        {
          "internalType": "string",
          "name": "uri",
          "type": "string"
        }
      ],
      "stateMutability": "view",
      "type": "function",
      "constant": true
    },
    {
      "inputs": [
        {
          "internalType": "address",
          "name": "to",
          "type": "address"
        },
        {
          "internalType": "uint256",
          "name": "tokenId",
          "type": "uint256"
        }
      ],
      "name": "approve",
      "outputs": [],
      "stateMutability": "nonpayable",
      "type": "function"
    },
    {
      "inputs": [
        {
          "internalType": "address",
          "name": "owner",
          "type": "address"
        }
      ],
      "name": "balanceOf",
      "outputs": [
        {
          "internalType": "uint256",
          "name": "",
          "type": "uint256"
        }
      ],
      "stateMutability": "view",
      "type": "function",
      "constant": true
    },
    {
      "inputs": [
        {
          "internalType": "uint256",
          "name": "tokenId",
          "type": "uint256"
        }
      ],
      "name": "getApproved",
      "outputs": [
        {
          "internalType": "address",
          "name": "",
          "type": "address"
        }
      ],
      "stateMutability": "view",
      "type": "function",
      "constant": true
    },
    {
      "inputs": [
        {
          "internalType": "address",
          "name": "owner",
          "type": "address"
        },
        {
          "internalType": "address",
          "name": "operator",
          "type": "address"
        }
      ],
      "name": "isApprovedForAll",
      "outputs": [
        {
          "internalType": "bool",
          "name": "",
          "type": "bool"
        }
      ],
      "stateMutability": "view",
      "type": "function",
      "constant": true
    },
    {
      "inputs": [],
      "name": "marketplace",
      "outputs": [
        {
          "internalType": "address",
          "name": "",
          "type": "address"
        }
      ],
      "stateMutability": "view",
      "type": "function",
      "constant": true
    },
    {
      "inputs": [],
      "name": "name",
      "outputs": [
        {
          "internalType": "string",
          "name": "",
          "type": "string"
        }
      ],
      "stateMutability": "view",
      "type": "function",
      "constant": true
    },
    {
      "inputs": [
        {
          "internalType": "uint256",
          "name": "tokenId",
          "type": "uint256"
        }
      ],
      "name": "ownerOf",
      "outputs": [
        {
          "internalType": "address",
          "name": "",
          "type": "address"
        }
      ],
      "stateMutability": "view",
      "type": "function",
      "constant": true
    },
    {
      "inputs": [
        {
          "internalType": "address",
          "name": "from",
          "type": "address"
        },
        {
          "internalType": "address",
          "name": "to",
          "type": "address"
        },
        {
          "internalType": "uint256",
          "name": "tokenId",
          "type": "uint256"
        }
      ],
      "name": "safeTransferFrom",
      "outputs": [],
      "stateMutability": "nonpayable",
      "type": "function"
    },
    {
      "inputs": [
        {
          "internalType": "address",
          "name": "from",
          "type": "address"
        },
        {
          "internalType": "address",
          "name": "to",
          "type": "address"
        },
        {
          "internalType": "uint256",
          "name": "tokenId",
          "type": "uint256"
        },
        {
          "internalType": "bytes",
          "name": "_data",
          "type": "bytes"
        }
      ],
      "name": "safeTransferFrom",
      "outputs": [],
      "stateMutability": "nonpayable",
      "type": "function"
    },
    {
      "inputs": [
        {
          "internalType": "address",
          "name": "operator",
          "type": "address"
        },
        {
          "internalType": "bool",
          "name": "approved",
          "type": "bool"
        }
      ],
      "name": "setApprovalForAll",
      "outputs": [],
      "stateMutability": "nonpayable",
      "type": "function"
    },
    {
      "inputs": [
        {
          "internalType": "bytes4",
          "name": "interfaceId",
          "type": "bytes4"
        }
      ],
      "name": "supportsInterface",
      "outputs": [
        {
          "internalType": "bool",
          "name": "",
          "type": "bool"
        }
      ],
      "stateMutability": "view",
      "type": "function",
      "constant": true
    },
    {
      "inputs": [],
      "name": "symbol",
      "outputs": [
        {
          "internalType": "string",
          "name": "",
          "type": "string"
        }
      ],
      "stateMutability": "view",
      "type": "function",
      "constant": true
    },
    {
      "inputs": [
        {
          "internalType": "uint256",
          "name": "index",
          "type": "uint256"
        }
      ],
      "name": "tokenByIndex",
      "outputs": [
        {
          "internalType": "uint256",
          "name": "",
          "type": "uint256"
        }
      ],
      "stateMutability": "view",
      "type": "function",
      "constant": true
    },
    {
      "inputs": [
        {
          "internalType": "address",
          "name": "owner",
          "type": "address"
        },
        {
          "internalType": "uint256",
          "name": "index",
          "type": "uint256"
        }
      ],
      "name": "tokenOfOwnerByIndex",
      "outputs": [
        {
          "internalType": "uint256",
          "name": "",
          "type": "uint256"
        }
      ],
      "stateMutability": "view",
      "type": "function",
      "constant": true
    },
    {
      "inputs": [],
      "name": "totalSupply",
      "outputs": [
        {
          "internalType": "uint256",
          "name": "",
          "type": "uint256"
        }
      ],
      "stateMutability": "view",
      "type": "function",
      "constant": true
    },
    {
      "inputs": [
        {
          "internalType": "address",
          "name": "from",
          "type": "address"
        },
        {
          "internalType": "address",
          "name": "to",
          "type": "address"
        },
        {
          "internalType": "uint256",
          "name": "tokenId",
          "type": "uint256"
        }
      ],
      "name": "transferFrom",
      "outputs": [],
      "stateMutability": "nonpayable",
      "type": "function"
    },
    {
      "inputs": [
        {
          "internalType": "string",
          "name": "uri",
          "type": "string"
        }
      ],
      "name": "mint",
      "outputs": [
        {
          "internalType": "uint256",
          "name": "",
          "type": "uint256"
        }
      ],
      "stateMutability": "nonpayable",
      "type": "function"
    },
    {
      "inputs": [
        {
          "internalType": "uint256",
          "name": "tokenId",
          "type": "uint256"
        }
      ],
      "name": "tokenURI",
      "outputs": [
        {
          "internalType": "string",
          "name": "",
          "type": "string"
        }
      ],
      "stateMutability": "view",
      "type": "function",
      "constant": true
    },
    {
      "inputs": [
        {
          "internalType": "address",
          "name": "market",
          "type": "address"
        }
      ],
      "name": "setMarketplace",
      "outputs": [],
      "stateMutability": "nonpayable",
      "type": "function"
    }
  ],
  "bytecode": "0x60806040523480156200001157600080fd5b506040518060400160405280600881526020017f417274546f6b656e0000000000000000000000000000000000000000000000008152506040518060400160405280600481526020017f4152544b00000000000000000000000000000000000000000000000000000000815250816000908051906020019062000096929190620000b8565b508060019080519060200190620000af929190620000b8565b505050620001cd565b828054620000c69062000197565b90600052602060002090601f016020900481019282620000ea576000855562000136565b82601f106200010557805160ff191683800117855562000136565b8280016001018555821562000136579182015b828111156200013557825182559160200191906001019062000118565b5b50905062000145919062000149565b5090565b5b80821115620001645760008160009055506001016200014a565b5090565b7f4e487b7100000000000000000000000000000000000000000000000000000000600052602260045260246000fd5b60006002820490506001821680620001b057607f821691505b60208210811415620001c757620001c662000168565b5b50919050565b61312d80620001dd6000396000f3fe608060405234801561001057600080fd5b506004361061012c5760003560e01c80636352211e116100ad578063abc8c7af11610071578063abc8c7af14610369578063b88d4fde14610387578063c87b56dd146103a3578063d85d3d27146103d3578063e985e9c5146104035761012c565b80636352211e146102b357806370a08231146102e357806373ad6c2d1461031357806395d89b411461032f578063a22cb4651461034d5761012c565b806318160ddd116100f457806318160ddd146101fd57806323b872dd1461021b5780632f745c591461023757806342842e0e146102675780634f6ccce7146102835761012c565b806301ffc9a71461013157806306fdde0314610161578063081812fc1461017f578063095ea7b3146101af57806317b47cc4146101cb575b600080fd5b61014b60048036038101906101469190611f6f565b610433565b6040516101589190611fb7565b60405180910390f35b6101696104ad565b604051610176919061206b565b60405180910390f35b610199600480360381019061019491906120c3565b61053f565b6040516101a69190612131565b60405180910390f35b6101c960048036038101906101c49190612178565b6105c4565b005b6101e560048036038101906101e091906120c3565b6106dc565b6040516101f4939291906121c7565b60405180910390f35b6102056107ae565b6040516102129190612205565b60405180910390f35b61023560048036038101906102309190612220565b6107bb565b005b610251600480360381019061024c9190612178565b61081b565b60405161025e9190612205565b60405180910390f35b610281600480360381019061027c9190612220565b6108c0565b005b61029d600480360381019061029891906120c3565b6108e0565b6040516102aa9190612205565b60405180910390f35b6102cd60048036038101906102c891906120c3565b610951565b6040516102da9190612131565b60405180910390f35b6102fd60048036038101906102f89190612273565b610a03565b60405161030a9190612205565b60405180910390f35b61032d60048036038101906103289190612273565b610abb565b005b610337610aff565b604051610344919061206b565b60405180910390f35b610367600480360381019061036291906122cc565b610b91565b005b610371610d12565b60405161037e9190612131565b60405180910390f35b6103a1600480360381019061039c9190612441565b610d38565b005b6103bd60048036038101906103b891906120c3565b610d9a565b6040516103ca919061206b565b60405180910390f35b6103ed60048036038101906103e89190612565565b610e8a565b6040516103fa9190612205565b60405180910390f35b61041d600480360381019061041891906125ae565b610f98565b60405161042a9190611fb7565b60405180910390f35b60007f780e9d63000000000000000000000000000000000000000000000000000000007bffffffffffffffffffffffffffffffffffffffffffffffffffffffff1916827bffffffffffffffffffffffffffffffffffffffffffffffffffffffff191614806104a657506104a58261102c565b5b9050919050565b6060600080546104bc9061261d565b80601f01602080910402602001604051908101604052809291908181526020018280546104e89061261d565b80156105355780601f1061050a57610100808354040283529160200191610535565b820191906000526020600020905b81548152906001019060200180831161051857829003601f168201915b5050505050905090565b600061054a8261110e565b610589576040517f08c379a0000000000000000000000000000000000000000000000000000000008152600401610580906126c1565b60405180910390fd5b6004600083815260200190815260200160002060009054906101000a900473ffffffffffffffffffffffffffffffffffffffff169050919050565b60006105cf82610951565b90508073ffffffffffffffffffffffffffffffffffffffff168373ffffffffffffffffffffffffffffffffffffffff161415610640576040517f08c379a000000000000000000000000000000000000000000000000000000000815260040161063790612753565b60405180910390fd5b8073ffffffffffffffffffffffffffffffffffffffff1661065f61117a565b73ffffffffffffffffffffffffffffffffffffffff16148061068e575061068d8161068861117a565b610f98565b5b6106cd576040517f08c379a00000000000000000000000000000000000000000000000000000000081526004016106c4906127e5565b60405180910390fd5b6106d78383611182565b505050565b600c6020528060005260406000206000915090508060000154908060010160009054906101000a900473ffffffffffffffffffffffffffffffffffffffff169080600201805461072b9061261d565b80601f01602080910402602001604051908101604052809291908181526020018280546107579061261d565b80156107a45780601f10610779576101008083540402835291602001916107a4565b820191906000526020600020905b81548152906001019060200180831161078757829003601f168201915b5050505050905083565b6000600880549050905090565b6107cc6107c661117a565b8261123b565b61080b576040517f08c379a000000000000000000000000000000000000000000000000000000000815260040161080290612877565b60405180910390fd5b610816838383611319565b505050565b600061082683610a03565b8210610867576040517f08c379a000000000000000000000000000000000000000000000000000000000815260040161085e90612909565b60405180910390fd5b600660008473ffffffffffffffffffffffffffffffffffffffff1673ffffffffffffffffffffffffffffffffffffffff168152602001908152602001600020600083815260200190815260200160002054905092915050565b6108db83838360405180602001604052806000815250610d38565b505050565b60006108ea6107ae565b821061092b576040517f08c379a00000000000000000000000000000000000000000000000000000000081526004016109229061299b565b60405180910390fd5b6008828154811061093f5761093e6129bb565b5b90600052602060002001549050919050565b6000806002600084815260200190815260200160002060009054906101000a900473ffffffffffffffffffffffffffffffffffffffff169050600073ffffffffffffffffffffffffffffffffffffffff168173ffffffffffffffffffffffffffffffffffffffff1614156109fa576040517f08c379a00000000000000000000000000000000000000000000000000000000081526004016109f190612a5c565b60405180910390fd5b80915050919050565b60008073ffffffffffffffffffffffffffffffffffffffff168273ffffffffffffffffffffffffffffffffffffffff161415610a74576040517f08c379a0000000000000000000000000000000000000000000000000000000008152600401610a6b90612aee565b60405180910390fd5b600360008373ffffffffffffffffffffffffffffffffffffffff1673ffffffffffffffffffffffffffffffffffffffff168152602001908152602001600020549050919050565b80600b60006101000a81548173ffffffffffffffffffffffffffffffffffffffff021916908373ffffffffffffffffffffffffffffffffffffffff16021790555050565b606060018054610b0e9061261d565b80601f0160208091040260200160405190810160405280929190818152602001828054610b3a9061261d565b8015610b875780601f10610b5c57610100808354040283529160200191610b87565b820191906000526020600020905b815481529060010190602001808311610b6a57829003601f168201915b5050505050905090565b610b9961117a565b73ffffffffffffffffffffffffffffffffffffffff168273ffffffffffffffffffffffffffffffffffffffff161415610c07576040517f08c379a0000000000000000000000000000000000000000000000000000000008152600401610bfe90612b5a565b60405180910390fd5b8060056000610c1461117a565b73ffffffffffffffffffffffffffffffffffffffff1673ffffffffffffffffffffffffffffffffffffffff16815260200190815260200160002060008473ffffffffffffffffffffffffffffffffffffffff1673ffffffffffffffffffffffffffffffffffffffff16815260200190815260200160002060006101000a81548160ff0219169083151502179055508173ffffffffffffffffffffffffffffffffffffffff16610cc161117a565b73ffffffffffffffffffffffffffffffffffffffff167f17307eab39ab6107e8899845ad3d59bd9653f200f220920489ca2b5937696c3183604051610d069190611fb7565b60405180910390a35050565b600b60009054906101000a900473ffffffffffffffffffffffffffffffffffffffff1681565b610d49610d4361117a565b8361123b565b610d88576040517f08c379a0000000000000000000000000000000000000000000000000000000008152600401610d7f90612877565b60405180910390fd5b610d9484848484611575565b50505050565b6060610da58261110e565b610de4576040517f08c379a0000000000000000000000000000000000000000000000000000000008152600401610ddb90612bec565b60405180910390fd5b600c60008381526020019081526020016000206002018054610e059061261d565b80601f0160208091040260200160405190810160405280929190818152602001828054610e319061261d565b8015610e7e5780601f10610e5357610100808354040283529160200191610e7e565b820191906000526020600020905b815481529060010190602001808311610e6157829003601f168201915b50505050509050919050565b6000610e96600a6115d1565b6000610ea2600a6115e7565b9050610eae33826115f5565b610eda600b60009054906101000a900473ffffffffffffffffffffffffffffffffffffffff16826105c4565b60405180606001604052808281526020013373ffffffffffffffffffffffffffffffffffffffff16815260200184815250600c60008381526020019081526020016000206000820151816000015560208201518160010160006101000a81548173ffffffffffffffffffffffffffffffffffffffff021916908373ffffffffffffffffffffffffffffffffffffffff1602179055506040820151816002019080519060200190610f8b929190611e60565b5090505080915050919050565b6000600560008473ffffffffffffffffffffffffffffffffffffffff1673ffffffffffffffffffffffffffffffffffffffff16815260200190815260200160002060008373ffffffffffffffffffffffffffffffffffffffff1673ffffffffffffffffffffffffffffffffffffffff16815260200190815260200160002060009054906101000a900460ff16905092915050565b60007f80ac58cd000000000000000000000000000000000000000000000000000000007bffffffffffffffffffffffffffffffffffffffffffffffffffffffff1916827bffffffffffffffffffffffffffffffffffffffffffffffffffffffff191614806110f757507f5b5e139f000000000000000000000000000000000000000000000000000000007bffffffffffffffffffffffffffffffffffffffffffffffffffffffff1916827bffffffffffffffffffffffffffffffffffffffffffffffffffffffff1916145b80611107575061110682611613565b5b9050919050565b60008073ffffffffffffffffffffffffffffffffffffffff166002600084815260200190815260200160002060009054906101000a900473ffffffffffffffffffffffffffffffffffffffff1673ffffffffffffffffffffffffffffffffffffffff1614159050919050565b600033905090565b816004600083815260200190815260200160002060006101000a81548173ffffffffffffffffffffffffffffffffffffffff021916908373ffffffffffffffffffffffffffffffffffffffff160217905550808273ffffffffffffffffffffffffffffffffffffffff166111f583610951565b73ffffffffffffffffffffffffffffffffffffffff167f8c5be1e5ebec7d5bd14f71427d1e84f3dd0314c0f7b2291e5b200ac8c7c3b92560405160405180910390a45050565b60006112468261110e565b611285576040517f08c379a000000000000000000000000000000000000000000000000000000000815260040161127c90612c7e565b60405180910390fd5b600061129083610951565b90508073ffffffffffffffffffffffffffffffffffffffff168473ffffffffffffffffffffffffffffffffffffffff1614806112ff57508373ffffffffffffffffffffffffffffffffffffffff166112e78461053f565b73ffffffffffffffffffffffffffffffffffffffff16145b80611310575061130f8185610f98565b5b91505092915050565b8273ffffffffffffffffffffffffffffffffffffffff1661133982610951565b73ffffffffffffffffffffffffffffffffffffffff161461138f576040517f08c379a000000000000000000000000000000000000000000000000000000000815260040161138690612d10565b60405180910390fd5b600073ffffffffffffffffffffffffffffffffffffffff168273ffffffffffffffffffffffffffffffffffffffff1614156113ff576040517f08c379a00000000000000000000000000000000000000000000000000000000081526004016113f690612da2565b60405180910390fd5b61140a83838361167d565b611415600082611182565b6001600360008573ffffffffffffffffffffffffffffffffffffffff1673ffffffffffffffffffffffffffffffffffffffff16815260200190815260200160002060008282546114659190612df1565b925050819055506001600360008473ffffffffffffffffffffffffffffffffffffffff1673ffffffffffffffffffffffffffffffffffffffff16815260200190815260200160002060008282546114bc9190612e25565b92505081905550816002600083815260200190815260200160002060006101000a81548173ffffffffffffffffffffffffffffffffffffffff021916908373ffffffffffffffffffffffffffffffffffffffff160217905550808273ffffffffffffffffffffffffffffffffffffffff168473ffffffffffffffffffffffffffffffffffffffff167fddf252ad1be2c89b69c2b068fc378daa952ba7f163c4a11628f55a4df523b3ef60405160405180910390a4505050565b611580848484611319565b61158c84848484611791565b6115cb576040517f08c379a00000000000000000000000000000000000000000000000000000000081526004016115c290612eed565b60405180910390fd5b50505050565b6001816000016000828254019250508190555050565b600081600001549050919050565b61160f828260405180602001604052806000815250611919565b5050565b60007f01ffc9a7000000000000000000000000000000000000000000000000000000007bffffffffffffffffffffffffffffffffffffffffffffffffffffffff1916827bffffffffffffffffffffffffffffffffffffffffffffffffffffffff1916149050919050565b611688838383611974565b600073ffffffffffffffffffffffffffffffffffffffff168373ffffffffffffffffffffffffffffffffffffffff1614156116cb576116c681611979565b61170a565b8173ffffffffffffffffffffffffffffffffffffffff168373ffffffffffffffffffffffffffffffffffffffff16146117095761170883826119c2565b5b5b600073ffffffffffffffffffffffffffffffffffffffff168273ffffffffffffffffffffffffffffffffffffffff16141561174d5761174881611b2f565b61178c565b8273ffffffffffffffffffffffffffffffffffffffff168273ffffffffffffffffffffffffffffffffffffffff161461178b5761178a8282611c00565b5b5b505050565b60006117b28473ffffffffffffffffffffffffffffffffffffffff16611c7f565b1561190c578373ffffffffffffffffffffffffffffffffffffffff1663150b7a026117db61117a565b8786866040518563ffffffff1660e01b81526004016117fd9493929190612f62565b6020604051808303816000875af192505050801561183957506040513d601f19601f820116820180604052508101906118369190612fc3565b60015b6118bc573d8060008114611869576040519150601f19603f3d011682016040523d82523d6000602084013e61186e565b606091505b506000815114156118b4576040517f08c379a00000000000000000000000000000000000000000000000000000000081526004016118ab90612eed565b60405180910390fd5b805181602001fd5b63150b7a0260e01b7bffffffffffffffffffffffffffffffffffffffffffffffffffffffff1916817bffffffffffffffffffffffffffffffffffffffffffffffffffffffff191614915050611911565b600190505b949350505050565b6119238383611c92565b6119306000848484611791565b61196f576040517f08c379a000000000000000000000000000000000000000000000000000000000815260040161196690612eed565b60405180910390fd5b505050565b505050565b6008805490506009600083815260200190815260200160002081905550600881908060018154018082558091505060019003906000526020600020016000909190919091505550565b600060016119cf84610a03565b6119d99190612df1565b9050600060076000848152602001908152602001600020549050818114611abe576000600660008673ffffffffffffffffffffffffffffffffffffffff1673ffffffffffffffffffffffffffffffffffffffff168152602001908152602001600020600084815260200190815260200160002054905080600660008773ffffffffffffffffffffffffffffffffffffffff1673ffffffffffffffffffffffffffffffffffffffff168152602001908152602001600020600084815260200190815260200160002081905550816007600083815260200190815260200160002081905550505b6007600084815260200190815260200160002060009055600660008573ffffffffffffffffffffffffffffffffffffffff1673ffffffffffffffffffffffffffffffffffffffff16815260200190815260200160002060008381526020019081526020016000206000905550505050565b60006001600880549050611b439190612df1565b9050600060096000848152602001908152602001600020549050600060088381548110611b7357611b726129bb565b5b906000526020600020015490508060088381548110611b9557611b946129bb565b5b906000526020600020018190555081600960008381526020019081526020016000208190555060096000858152602001908152602001600020600090556008805480611be457611be3612ff0565b5b6001900381819060005260206000200160009055905550505050565b6000611c0b83610a03565b905081600660008573ffffffffffffffffffffffffffffffffffffffff1673ffffffffffffffffffffffffffffffffffffffff168152602001908152602001600020600083815260200190815260200160002081905550806007600084815260200190815260200160002081905550505050565b600080823b905060008111915050919050565b600073ffffffffffffffffffffffffffffffffffffffff168273ffffffffffffffffffffffffffffffffffffffff161415611d02576040517f08c379a0000000000000000000000000000000000000000000000000000000008152600401611cf99061306b565b60405180910390fd5b611d0b8161110e565b15611d4b576040517f08c379a0000000000000000000000000000000000000000000000000000000008152600401611d42906130d7565b60405180910390fd5b611d576000838361167d565b6001600360008473ffffffffffffffffffffffffffffffffffffffff1673ffffffffffffffffffffffffffffffffffffffff1681526020019081526020016000206000828254611da79190612e25565b92505081905550816002600083815260200190815260200160002060006101000a81548173ffffffffffffffffffffffffffffffffffffffff021916908373ffffffffffffffffffffffffffffffffffffffff160217905550808273ffffffffffffffffffffffffffffffffffffffff16600073ffffffffffffffffffffffffffffffffffffffff167fddf252ad1be2c89b69c2b068fc378daa952ba7f163c4a11628f55a4df523b3ef60405160405180910390a45050565b828054611e6c9061261d565b90600052602060002090601f016020900481019282611e8e5760008555611ed5565b82601f10611ea757805160ff1916838001178555611ed5565b82800160010185558215611ed5579182015b82811115611ed4578251825591602001919060010190611eb9565b5b509050611ee29190611ee6565b5090565b5b80821115611eff576000816000905550600101611ee7565b5090565b6000604051905090565b600080fd5b600080fd5b60007fffffffff0000000000000000000000000000000000000000000000000000000082169050919050565b611f4c81611f17565b8114611f5757600080fd5b50565b600081359050611f6981611f43565b92915050565b600060208284031215611f8557611f84611f0d565b5b6000611f9384828501611f5a565b91505092915050565b60008115159050919050565b611fb181611f9c565b82525050565b6000602082019050611fcc6000830184611fa8565b92915050565b600081519050919050565b600082825260208201905092915050565b60005b8381101561200c578082015181840152602081019050611ff1565b8381111561201b576000848401525b50505050565b6000601f19601f8301169050919050565b600061203d82611fd2565b6120478185611fdd565b9350612057818560208601611fee565b61206081612021565b840191505092915050565b600060208201905081810360008301526120858184612032565b905092915050565b6000819050919050565b6120a08161208d565b81146120ab57600080fd5b50565b6000813590506120bd81612097565b92915050565b6000602082840312156120d9576120d8611f0d565b5b60006120e7848285016120ae565b91505092915050565b600073ffffffffffffffffffffffffffffffffffffffff82169050919050565b600061211b826120f0565b9050919050565b61212b81612110565b82525050565b60006020820190506121466000830184612122565b92915050565b61215581612110565b811461216057600080fd5b50565b6000813590506121728161214c565b92915050565b6000806040838503121561218f5761218e611f0d565b5b600061219d85828601612163565b92505060206121ae858286016120ae565b9150509250929050565b6121c18161208d565b82525050565b60006060820190506121dc60008301866121b8565b6121e96020830185612122565b81810360408301526121fb8184612032565b9050949350505050565b600060208201905061221a60008301846121b8565b92915050565b60008060006060848603121561223957612238611f0d565b5b600061224786828701612163565b935050602061225886828701612163565b9250506040612269868287016120ae565b9150509250925092565b60006020828403121561228957612288611f0d565b5b600061229784828501612163565b91505092915050565b6122a981611f9c565b81146122b457600080fd5b50565b6000813590506122c6816122a0565b92915050565b600080604083850312156122e3576122e2611f0d565b5b60006122f185828601612163565b9250506020612302858286016122b7565b9150509250929050565b600080fd5b600080fd5b7f4e487b7100000000000000000000000000000000000000000000000000000000600052604160045260246000fd5b61234e82612021565b810181811067ffffffffffffffff8211171561236d5761236c612316565b5b80604052505050565b6000612380611f03565b905061238c8282612345565b919050565b600067ffffffffffffffff8211156123ac576123ab612316565b5b6123b582612021565b9050602081019050919050565b82818337600083830152505050565b60006123e46123df84612391565b612376565b905082815260208101848484011115612400576123ff612311565b5b61240b8482856123c2565b509392505050565b600082601f8301126124285761242761230c565b5b81356124388482602086016123d1565b91505092915050565b6000806000806080858703121561245b5761245a611f0d565b5b600061246987828801612163565b945050602061247a87828801612163565b935050604061248b878288016120ae565b925050606085013567ffffffffffffffff8111156124ac576124ab611f12565b5b6124b887828801612413565b91505092959194509250565b600067ffffffffffffffff8211156124df576124de612316565b5b6124e882612021565b9050602081019050919050565b6000612508612503846124c4565b612376565b90508281526020810184848401111561252457612523612311565b5b61252f8482856123c2565b509392505050565b600082601f83011261254c5761254b61230c565b5b813561255c8482602086016124f5565b91505092915050565b60006020828403121561257b5761257a611f0d565b5b600082013567ffffffffffffffff81111561259957612598611f12565b5b6125a584828501612537565b91505092915050565b600080604083850312156125c5576125c4611f0d565b5b60006125d385828601612163565b92505060206125e485828601612163565b9150509250929050565b7f4e487b7100000000000000000000000000000000000000000000000000000000600052602260045260246000fd5b6000600282049050600182168061263557607f821691505b60208210811415612649576126486125ee565b5b50919050565b7f4552433732313a20617070726f76656420717565727920666f72206e6f6e657860008201527f697374656e7420746f6b656e0000000000000000000000000000000000000000602082015250565b60006126ab602c83611fdd565b91506126b68261264f565b604082019050919050565b600060208201905081810360008301526126da8161269e565b9050919050565b7f4552433732313a20617070726f76616c20746f2063757272656e74206f776e6560008201527f7200000000000000000000000000000000000000000000000000000000000000602082015250565b600061273d602183611fdd565b9150612748826126e1565b604082019050919050565b6000602082019050818103600083015261276c81612730565b9050919050565b7f4552433732313a20617070726f76652063616c6c6572206973206e6f74206f7760008201527f6e6572206e6f7220617070726f76656420666f7220616c6c0000000000000000602082015250565b60006127cf603883611fdd565b91506127da82612773565b604082019050919050565b600060208201905081810360008301526127fe816127c2565b9050919050565b7f4552433732313a207472616e736665722063616c6c6572206973206e6f74206f60008201527f776e6572206e6f7220617070726f766564000000000000000000000000000000602082015250565b6000612861603183611fdd565b915061286c82612805565b604082019050919050565b6000602082019050818103600083015261289081612854565b9050919050565b7f455243373231456e756d657261626c653a206f776e657220696e646578206f7560008201527f74206f6620626f756e6473000000000000000000000000000000000000000000602082015250565b60006128f3602b83611fdd565b91506128fe82612897565b604082019050919050565b60006020820190508181036000830152612922816128e6565b9050919050565b7f455243373231456e756d657261626c653a20676c6f62616c20696e646578206f60008201527f7574206f6620626f756e64730000000000000000000000000000000000000000602082015250565b6000612985602c83611fdd565b915061299082612929565b604082019050919050565b600060208201905081810360008301526129b481612978565b9050919050565b7f4e487b7100000000000000000000000000000000000000000000000000000000600052603260045260246000fd5b7f4552433732313a206f776e657220717565727920666f72206e6f6e657869737460008201527f656e7420746f6b656e0000000000000000000000000000000000000000000000602082015250565b6000612a46602983611fdd565b9150612a51826129ea565b604082019050919050565b60006020820190508181036000830152612a7581612a39565b9050919050565b7f4552433732313a2062616c616e636520717565727920666f7220746865207a6560008201527f726f206164647265737300000000000000000000000000000000000000000000602082015250565b6000612ad8602a83611fdd565b9150612ae382612a7c565b604082019050919050565b60006020820190508181036000830152612b0781612acb565b9050919050565b7f4552433732313a20617070726f766520746f2063616c6c657200000000000000600082015250565b6000612b44601983611fdd565b9150612b4f82612b0e565b602082019050919050565b60006020820190508181036000830152612b7381612b37565b9050919050565b7f45524337323155524953746f726167653a2055524920717565727920666f722060008201527f6e6f6e6578697374656e7420746f6b656e000000000000000000000000000000602082015250565b6000612bd6603183611fdd565b9150612be182612b7a565b604082019050919050565b60006020820190508181036000830152612c0581612bc9565b9050919050565b7f4552433732313a206f70657261746f7220717565727920666f72206e6f6e657860008201527f697374656e7420746f6b656e0000000000000000000000000000000000000000602082015250565b6000612c68602c83611fdd565b9150612c7382612c0c565b604082019050919050565b60006020820190508181036000830152612c9781612c5b565b9050919050565b7f4552433732313a207472616e73666572206f6620746f6b656e2074686174206960008201527f73206e6f74206f776e0000000000000000000000000000000000000000000000602082015250565b6000612cfa602983611fdd565b9150612d0582612c9e565b604082019050919050565b60006020820190508181036000830152612d2981612ced565b9050919050565b7f4552433732313a207472616e7366657220746f20746865207a65726f2061646460008201527f7265737300000000000000000000000000000000000000000000000000000000602082015250565b6000612d8c602483611fdd565b9150612d9782612d30565b604082019050919050565b60006020820190508181036000830152612dbb81612d7f565b9050919050565b7f4e487b7100000000000000000000000000000000000000000000000000000000600052601160045260246000fd5b6000612dfc8261208d565b9150612e078361208d565b925082821015612e1a57612e19612dc2565b5b828203905092915050565b6000612e308261208d565b9150612e3b8361208d565b9250827fffffffffffffffffffffffffffffffffffffffffffffffffffffffffffffffff03821115612e7057612e6f612dc2565b5b828201905092915050565b7f4552433732313a207472616e7366657220746f206e6f6e20455243373231526560008201527f63656976657220696d706c656d656e7465720000000000000000000000000000602082015250565b6000612ed7603283611fdd565b9150612ee282612e7b565b604082019050919050565b60006020820190508181036000830152612f0681612eca565b9050919050565b600081519050919050565b600082825260208201905092915050565b6000612f3482612f0d565b612f3e8185612f18565b9350612f4e818560208601611fee565b612f5781612021565b840191505092915050565b6000608082019050612f776000830187612122565b612f846020830186612122565b612f9160408301856121b8565b8181036060830152612fa38184612f29565b905095945050505050565b600081519050612fbd81611f43565b92915050565b600060208284031215612fd957612fd8611f0d565b5b6000612fe784828501612fae565b91505092915050565b7f4e487b7100000000000000000000000000000000000000000000000000000000600052603160045260246000fd5b7f4552433732313a206d696e7420746f20746865207a65726f2061646472657373600082015250565b6000613055602083611fdd565b91506130608261301f565b602082019050919050565b6000602082019050818103600083015261308481613048565b9050919050565b7f4552433732313a20746f6b656e20616c7265616479206d696e74656400000000600082015250565b60006130c1601c83611fdd565b91506130cc8261308b565b602082019050919050565b600060208201905081810360008301526130f0816130b4565b905091905056fea26469706673582212202fa8f160c4fc07b883699f468493c8ef35f9c725f20705f45ffafa221a6ed9ba64736f6c634300080c0033",
  "immutableReferences": {},
  "source": "// SPDX-License-Identifier: MIT\r\npragma solidity ^0.8.0;\r\n\r\nimport \"@openzeppelin/contracts/token/ERC721/ERC721.sol\";\r\nimport \"@openzeppelin/contracts/token/ERC721/extensions/ERC721Enumerable.sol\";\r\nimport \"@openzeppelin/contracts/token/ERC721/extensions/ERC721URIStorage.sol\";\r\nimport \"@openzeppelin/contracts/utils/Counters.sol\";\r\n\r\ncontract ArtToken is ERC721Enumerable{\r\n  using Counters for Counters.Counter;\r\n\r\n  Counters.Counter private _tokenIds;\r\n  address public marketplace;\r\n\r\n  struct Item {\r\n    uint256 id;\r\n    address creator;\r\n    string uri;//metadata url\r\n  }\r\n\r\n  mapping(uint256 => Item) public Items; //id => Item\r\n\r\n  constructor () ERC721(\"ArtToken\", \"ARTK\") {}\r\n\r\n  function mint(string memory uri) public returns (uint256){\r\n    _tokenIds.increment();\r\n    uint256 newItemId = _tokenIds.current();\r\n    _safeMint(msg.sender, newItemId);\r\n    approve(marketplace, newItemId);\r\n\r\n    Items[newItemId] = Item({\r\n      id: newItemId, \r\n      creator: msg.sender,\r\n      uri: uri\r\n    });\r\n\r\n    return newItemId;\r\n  }\r\n\r\n  function tokenURI(uint256 tokenId) public view override returns (string memory) {\r\n    require(_exists(tokenId), \"ERC721URIStorage: URI query for nonexistent token\");\r\n    return Items[tokenId].uri;\r\n  }\r\n\r\n  function setMarketplace(address market) public {\r\n    //require(msg.sender ==);\r\n    marketplace = market;\r\n  }\r\n\r\n}",
  "sourcePath": "D:\\0ETH\\NFT-Marketplace\\contracts\\ArtToken.sol",
  "compiler": {
    "name": "solc",
    "version": "0.8.12+commit.f00d7308.Emscripten.clang"
  },
  "schemaVersion": "3.4.1",
  "updatedAt": "2022-03-13T15:34:00.733Z",
  "networkType": "ethereum",
  "devdoc": {
    "kind": "dev",
    "methods": {
      "approve(address,uint256)": {
        "details": "See {IERC721-approve}."
      },
      "balanceOf(address)": {
        "details": "See {IERC721-balanceOf}."
      },
      "getApproved(uint256)": {
        "details": "See {IERC721-getApproved}."
      },
      "isApprovedForAll(address,address)": {
        "details": "See {IERC721-isApprovedForAll}."
      },
      "name()": {
        "details": "See {IERC721Metadata-name}."
      },
      "ownerOf(uint256)": {
        "details": "See {IERC721-ownerOf}."
      },
      "safeTransferFrom(address,address,uint256)": {
        "details": "See {IERC721-safeTransferFrom}."
      },
      "safeTransferFrom(address,address,uint256,bytes)": {
        "details": "See {IERC721-safeTransferFrom}."
      },
      "setApprovalForAll(address,bool)": {
        "details": "See {IERC721-setApprovalForAll}."
      },
      "supportsInterface(bytes4)": {
        "details": "See {IERC165-supportsInterface}."
      },
      "symbol()": {
        "details": "See {IERC721Metadata-symbol}."
      },
      "tokenByIndex(uint256)": {
        "details": "See {IERC721Enumerable-tokenByIndex}."
      },
      "tokenOfOwnerByIndex(address,uint256)": {
        "details": "See {IERC721Enumerable-tokenOfOwnerByIndex}."
      },
      "tokenURI(uint256)": {
        "details": "See {IERC721Metadata-tokenURI}."
      },
      "totalSupply()": {
        "details": "See {IERC721Enumerable-totalSupply}."
      },
      "transferFrom(address,address,uint256)": {
        "details": "See {IERC721-transferFrom}."
      }
    },
    "version": 1
  },
  "userdoc": {
    "kind": "user",
    "methods": {},
    "version": 1
  }
}